{
  "contractName": "SimpleStorage",
  "abi": [
    {
      "constant": true,
      "inputs": [
        {
          "internalType": "string",
          "name": "",
          "type": "string"
        }
      ],
      "name": "nameToBestNumber",
      "outputs": [
        {
          "internalType": "uint256",
          "name": "",
          "type": "uint256"
        }
      ],
      "payable": false,
      "stateMutability": "view",
      "type": "function"
    },
    {
      "constant": true,
      "inputs": [
        {
          "internalType": "uint256",
          "name": "",
          "type": "uint256"
        }
      ],
      "name": "people",
      "outputs": [
        {
          "internalType": "uint256",
          "name": "bestNumber",
          "type": "uint256"
        },
        {
          "internalType": "string",
          "name": "name",
          "type": "string"
        }
      ],
      "payable": false,
      "stateMutability": "view",
      "type": "function"
    },
    {
      "constant": false,
      "inputs": [
        {
          "internalType": "uint256",
          "name": "_bestNumber",
          "type": "uint256"
        }
      ],
      "name": "store",
      "outputs": [],
      "payable": false,
      "stateMutability": "nonpayable",
      "type": "function"
    },
    {
      "constant": true,
      "inputs": [],
      "name": "getNumber",
      "outputs": [
        {
          "internalType": "uint256",
          "name": "",
          "type": "uint256"
        }
      ],
      "payable": false,
      "stateMutability": "view",
      "type": "function"
    },
    {
      "constant": false,
      "inputs": [
        {
          "internalType": "string",
          "name": "_name",
          "type": "string"
        },
        {
          "internalType": "uint256",
          "name": "_bestNumber",
          "type": "uint256"
        }
      ],
      "name": "addPerson",
      "outputs": [],
      "payable": false,
      "stateMutability": "nonpayable",
      "type": "function"
    }
  ],
  "bytecode": "0x6080604052600560005560018060006101000a81548160ff0219169083151502179055506040518060400160405280600781526020017f74657374313233000000000000000000000000000000000000000000000000008152506002908051906020019061006e9291906100ff565b506037600355735555555555555555555555555555555555555555600460006101000a81548173ffffffffffffffffffffffffffffffffffffffff021916908373ffffffffffffffffffffffffffffffffffffffff1602179055507f646f6700000000000000000000000000000000000000000000000000000000006005553480156100f957600080fd5b506101a4565b828054600181600116156101000203166002900490600052602060002090601f016020900481019282601f1061014057805160ff191683800117855561016e565b8280016001018555821561016e579182015b8281111561016d578251825591602001919060010190610152565b5b50905061017b919061017f565b5090565b6101a191905b8082111561019d576000816000905550600101610185565b5090565b90565b6105ac806101b36000396000f3fe608060405234801561001057600080fd5b50600436106100575760003560e01c80636057361d1461005c5780636f760f411461008a5780639e7a13ad1461014f578063a39d1567146101fd578063f2c9ecd8146102cc575b600080fd5b6100886004803603602081101561007257600080fd5b81019080803590602001909291905050506102ea565b005b61014d600480360360408110156100a057600080fd5b81019080803590602001906401000000008111156100bd57600080fd5b8201836020820111156100cf57600080fd5b803590602001918460018302840111640100000000831117156100f157600080fd5b91908080601f016020809104026020016040519081016040528093929190818152602001838380828437600081840152601f19601f820116905080830192505050505050509192919290803590602001909291905050506102f4565b005b61017b6004803603602081101561016557600080fd5b81019080803590602001909291905050506103d2565b6040518083815260200180602001828103825283818151815260200191508051906020019080838360005b838110156101c15780820151818401526020810190506101a6565b50505050905090810190601f1680156101ee5780820380516001836020036101000a031916815260200191505b50935050505060405180910390f35b6102b66004803603602081101561021357600080fd5b810190808035906020019064010000000081111561023057600080fd5b82018360208201111561024257600080fd5b8035906020019184600183028401116401000000008311171561026457600080fd5b91908080601f016020809104026020016040519081016040528093929190818152602001838380828437600081840152601f19601f82011690508083019250505050505050919291929050505061049b565b6040518082815260200191505060405180910390f35b6102d46104c9565b6040518082815260200191505060405180910390f35b8060008190555050565b60066040518060400160405280838152602001848152509080600181540180825580915050906001820390600052602060002090600202016000909192909190915060008201518160000155602082015181600101908051906020019061035c9291906104d2565b50505050806007836040518082805190602001908083835b602083106103975780518252602082019150602081019050602083039250610374565b6001836020036101000a0380198251168184511680821785525050505050509050019150509081526020016040518091039020819055505050565b600681815481106103df57fe5b9060005260206000209060020201600091509050806000015490806001018054600181600116156101000203166002900480601f0160208091040260200160405190810160405280929190818152602001828054600181600116156101000203166002900480156104915780601f1061046657610100808354040283529160200191610491565b820191906000526020600020905b81548152906001019060200180831161047457829003601f168201915b5050505050905082565b6007818051602081018201805184825260208301602085012081835280955050505050506000915090505481565b60008054905090565b828054600181600116156101000203166002900490600052602060002090601f016020900481019282601f1061051357805160ff1916838001178555610541565b82800160010185558215610541579182015b82811115610540578251825591602001919060010190610525565b5b50905061054e9190610552565b5090565b61057491905b80821115610570576000816000905550600101610558565b5090565b9056fea265627a7a72315820cae3220b4a6a0299fd6e3193f633bbf7a024824bb86d5d136168606225f8a68864736f6c63430005100032",
  "source": "// SPDX-License-Identier: MIT\r\n\r\npragma solidity >= 0.5.0 < 0.9.0;\r\n\r\ncontract SimpleStorage{\r\n\r\n    uint256 bestNumber = 5;\r\n    bool bestBool = true;\r\n    string bestString = \"test123\";\r\n    int256 bestInt = 55;\r\n    address bestAddress = 0x5555555555555555555555555555555555555555;\r\n    bytes32 bestByte = \"dog\";\r\n\r\n    struct People{\r\n\r\n        uint256 bestNumber;\r\n        string name;\r\n\r\n    }\r\n\r\n    // People public person = People({bestNumber: 55, name: \"Bruce Wayne\"});\r\n\r\n    People [] public people;\r\n    mapping (string => uint256) public nameToBestNumber;\r\n\r\n    function store(uint256 _bestNumber) public {\r\n\r\n        bestNumber = _bestNumber;\r\n\r\n    }\r\n\r\n    function getNumber() public view returns(uint256){\r\n\r\n        return bestNumber;\r\n\r\n    }\r\n\r\n    function addPerson(string memory _name, uint256 _bestNumber) public {\r\n\r\n        people.push(People(_bestNumber, _name));\r\n        nameToBestNumber[_name] = _bestNumber;\r\n\r\n    }\r\n\r\n}",
  "sourcePath": "C:\\Users\\dexter\\Desktop\\Hyperledger Besu\\Besu Contract\\contracts\\SimpleStorage.sol",
  "compiler": {
    "name": "solc",
    "version": "0.5.16+commit.9c3226ce.Emscripten.clang"
  },
  "schemaVersion": "3.4.9",
  "updatedAt": "2022-08-29T14:26:09.370Z",
  "devdoc": {
    "methods": {}
  },
  "userdoc": {
    "methods": {}
  }
}